S0180000536D61727420686F6D652079617261622E737265630D
S11300000C945F000C947C000C947C000C947C0099
S11300100C947C000C947C000C947C000C947C006C
S11300200C947C000C947C000C947C000C947C005C
S11300300C947C000C947C000C947C000C947C004C
S11300400C94C1000C947C000C947C000C947C00F7
S11300500C947C00D60681058105270730073907F3
S11300604207810581058105810581058105810599
S1130070810581058105810581058105810581054C
S1130080810581058105810581058105810581053C
S1130090810581058105810581058105810581052C
S11300A0810581058105810581058105810581051C
S11300B08105810581054B0715071E07F2061124EA
S11300C01FBECFE5D8E0DEBFCDBF12E0A0E6B0E0B2
S11300D0E6EDF2E102C005900D92AC3BB107D9F711
S11300E022E0ACEBB2E001C01D92AF3BB207E1F7F6
S11300F00E9488040C9469090C94000017B887B115
S1130100806487B988E086B986B1806286B980B791
S113011080BF86B1816086B986B1826086B986B1B6
S1130120846086B986B1806886B9089597B1907E57
S113013097B997B1982B97B94AB321E030E0B90148
S113014002C0660F771F8A95E2F7CB01809584235E
S11301508ABB089586B1806486B90895CF938830A8
S113016048F4C82F379B0E947E008C2F0E94960073
S11301700E94AA00CF9108959093BD028093BC027F
S113018008951F920F920FB60F9211242F933F934D
S11301904F935F936F937F938F939F93AF93BF938B
S11301A0EF93FF93E091BC02F091BD02309709F008
S11301B00995FF91EF91BF91AF919F918F917F919D
S11301C06F915F914F913F912F910F900FBE0F90C0
S11301D01F901895843008F072C0683008F06FC022
S11301E0423008F06CC0813001F130F08230B1F15E
S11301F0833009F44CC00895413059F42AB381E0A6
S113020090E002C0880F991F6A95E2F7822B8ABB9F
S113021008952AB381E090E002C0880F991F6A957F
S1130220E2F7809582238ABB0895413059F427B3BD
S113023081E090E002C0880F991F6A95E2F7822B53
S113024087BB089527B381E090E002C0880F991F0F
S11302506A95E2F78095822387BB0895413059F46B
S113026024B381E090E002C0880F991F6A95E2F7F9
S1130270822B84BB089524B381E090E002C0880FF0
S1130280991F6A95E2F78095822384BB08954130D3
S113029059F421B381E090E002C0880F991F6A9558
S11302A0E2F7822B81BB089521B381E090E002C084
S11302B0880F991F6A95E2F78095822381BB089580
S11302C0843008F072C0683008F06FC0423008F023
S11302D06CC0813001F130F08230B1F1833009F427
S11302E04CC00895413059F42BB381E090E002C032
S11302F0880F991F6A95E2F7822B8BBB08952BB365
S113030081E090E002C0880F991F6A95E2F780951A
S113031082238BBB0895413059F428B381E090E0E7
S113032002C0880F991F6A95E2F7822B88BB089553
S113033028B381E090E002C0880F991F6A95E2F724
S11303408095822388BB0895413059F425B381E018
S113035090E002C0880F991F6A95E2F7822B85BB53
S1130360089525B381E090E002C0880F991F6A9533
S1130370E2F78095822385BB0895413059F422B376
S113038081E090E002C0880F991F6A95E2F7822B02
S113039082BB089522B381E090E002C0880F991FC8
S11303A06A95E2F78095822382BB0895843008F031
S11303B04EC0683008F04BC04115510509F447C0E0
S11303C08130B1F028F0823019F1833089F1089539
S11303D089B390E002C0959587956A95E2F780FF0E
S11303E004C081E0FA0180830895FA01108208951F
S11303F086B390E002C0959587956A95E2F780FFF1
S113040004C081E0FA0180830895FA0110820895FE
S113041083B390E002C0959587956A95E2F780FFD3
S113042004C081E0FA0180830895FA0110820895DE
S113043080B390E002C0959587956A95E2F780FFB6
S113044004C081E0FA0180830895FA0110820895BE
S11304508430A8F5683098F5813089F028F082302E
S1130460C9F0833011F108952BB381E090E002C00C
S1130470880F991F6A95E2F782278BBB089528B3EA
S113048081E090E002C0880F991F6A95E2F7822705
S113049088BB089525B381E090E002C0880F991FBE
S11304A06A95E2F7822785BB089522B381E090E044
S11304B002C0880F991F6A95E2F7822782BB0895CC
S11304C08430A8F5683098F5813089F028F08230BE
S11304D0C9F0833011F108952BB381E090E002C09C
S11304E0880F991F6A95E2F7822B8BBB089528B376
S11304F081E090E002C0880F991F6A95E2F7822B91
S113050088BB089525B381E090E002C0880F991F4D
S11305106A95E2F7822B85BB089522B381E090E0CF
S113052002C0880F991F6A95E2F7822B82BB089557
S1130530E199FECF9FBB8EBB6DBB8CB384608CBB3B
S11305408CB382608CBB0895E199FECF9FBB8EBBB8
S11305508CB381608CBB8DB3FB0180830895DC0177
S113056090E00DC0292F30E0FD01E20FF31F508110
S1130570FB01E20FF31F2081521305C09F5F941704
S113058088F381E0089580E008958F929F92AF925E
S1130590BF92CF92DF92EF92FF920F931F93CF936C
S11305A0DF93CDB7DEB769970FB6F894DEBF0FBE01
S11305B0CDBF009709F468C05C0124E0298395E06D
S11305C09A8386E08B8337E03C8333E03D832E833C
S11305D09F83888780E1E2E9F0E0DE0119960190CB
S11305E00D928A95E1F78FEFF5018083912C48C035
S11305F0C92CD12CE1E0F0E0EC0FFD1FEC0DFD1D4A
S1130600808040E0682D81E00E94600110E030C0ED
S1130610E12EF12CE5E0F0E0EC0FFD1FEE0DFF1DE7
S11306200081AE01475E5F4F602F82E00E94D601D9
S1130630898D81111CC0EE0CFF1CEE0CFF1C81E0A7
S113064090E08C0F9D1FE80EF91EF701EC0DFD1DC7
S11306508085F501808307C0AE01475E5F4F602F40
S113066082E00E94D601898D8823B1F30DC01F5FFB
S1130670143070F241E0682D81E00E94600193948F
S1130680F3E0F91508F0B4CF69960FB6F894DEBF1D
S11306900FBECDBFDF91CF911F910F91FF90EF90CF
S11306A0DF90CF90BF90AF909F908F900895CF939D
S11306B0C82F80FF06C041E064E080E00E94600132
S11306C005C040E064E080E00E946001C1FF06C014
S11306D041E065E080E00E94600105C040E065E023
S11306E080E00E946001C2FF06C041E066E080E055
S11306F00E94600105C040E066E080E00E94600165
S1130700C3FF06C041E067E080E00E94600105C0CD
S113071040E067E080E00E946001CF910895CF93AC
S1130720C82F40E061E081E00E94600140E062E0A7
S113073081E00E9460018C2F82958F700E94570384
S113074041E063E081E00E9460018FE99FE001974E
S1130750F1F700C0000040E063E081E00E94600126
S11307608C2F0E94570341E063E081E00E94600106
S11307708FE99FE00197F1F700C0000040E063E0DB
S113078081E00E946001CF9108952FE785EB91E00D
S1130790215080409040E1F700C0000040E061E05B
S11307A081E00E94600140E062E081E00E9460011B
S11307B082E00E94570341E063E081E00E9460010F
S11307C08FE99FE00197F1F700C0000040E063E08B
S11307D081E00E94600188E20E948F0390EF9A9565
S11307E0F1F78FE00E948F0320EF2A95F1F781E063
S11307F00E948F038FE39FE10197F1F700C000008F
S113080086E00E948F030895CF93C82F41E061E0F2
S113081081E00E94600140E062E081E00E946001AA
S11308208C2F82958F700E94570341E063E081E032
S11308300E9460018FE99FE00197F1F700C000007A
S113084040E063E081E00E9460018C2F0E94570326
S113085041E063E081E00E9460018FE99FE001973D
S1130860F1F700C0000040E063E081E00E94600115
S1130870CF9108950F931F93CF938C01C0E003C0D1
S11308800E940404CF5FF801EC0FF11D80818111F7
S1130890F7CFCF911F910F910895811105C0862F35
S11308A080680E948F030895813021F4862F806C24
S11308B00E948F03089581E00E948F038FE39FE1DC
S11308C00197F1F700C0000008950E9428020895DE
S11308D084B195B18433910568F02091BE02211151
S11308E009C041E062E080E00E94600181E0809301
S11308F0BE020895C39758F48091BE02813039F442
S113090040E062E080E00E9460011092BE0208951F
S1130910CF93DF93CDB7DEB766970FB6F894DEBFFB
S11309200FBECDBF8AE0EEE7F0E0DE011196019044
S11309300D928A95E1F741E064E081E00E94EA00CB
S113094041E065E081E00E94EA0041E066E081E088
S11309500E94EA0041E067E081E00E94EA0040E092
S113096063E082E00E94EA0040E064E082E00E94EA
S1130970EA0040E065E082E00E94EA0040E066E0D0
S113098082E00E94EA0063E082E00E94600264E088
S113099082E00E94600265E082E00E94600266E0FC
S11309A082E00E94600241E064E080E00E94EA008C
S11309B041E065E080E00E94EA0041E066E080E01A
S11309C00E94EA0041E067E080E00E94EA0041E022
S11309D061E081E00E94EA0041E062E081E00E947F
S11309E0EA0041E063E081E00E94EA000E94C5035E
S11309F00E94C8088FB780688FBF88E694E00E9481
S1130A00BC0040E061E080E00E94EA0041E062E076
S1130A1080E00E94EA0081E090E00E94AE0083EB57
S1130A2090E00E94DA08BE01655F7F4F88EE93E094
S1130A300E94A402BE01645F7F4F89EE93E00E948E
S1130A40A4028B858F3F21F08C858F3F09F04FC026
S1130A5082ED90E00E94DA0889EE90E00E94DA08C4
S1130A608EEF90E00E94DA0810E00FC0CE014196AC
S1130A700E94E90889890E94D608812F90E069893B
S1130A8086519C4F0E9498021F5F143078F361E0F6
S1130A9088EE93E00E9498028AE091E00E94DA08CE
S1130AA08DE191E00E94DA0810E00FC0CE010D96AE
S1130AB00E94E9088D850E94D608812F90E06D85FB
S1130AC082519C4F0E9498021F5F143078F361E0BA
S1130AD089EE93E00E94980289E291E00E94DA088C
S1130AE060E082EF93E00E949802C12C08C0BE012E
S1130AF0635F7F4F82EF93E00E94A402CD84D12CE8
S1130B00E12CF12C45C121E0C21214C086E391E02E
S1130B100E94DA0841E063E080E00E94EA0041E0DC
S1130B2063E080E00E94600160E082EF93E00E9455
S1130B309802FFCF88E491E00E94DA0889E591E009
S1130B400E94DA08CE0146960E94E9088E898053F5
S1130B50823020F08AE691E00E94DA088FEF898BD8
S1130B608A8B8B8B8C8B8D878E878F87888B8E89D6
S1130B70803309F464C0813309F405C109C18AE7EB
S1130B8091E00E94DA0889E891E00E94DA0810E016
S1130B901CC0CE0145960E94E9088D890E94D608A2
S1130BA0812F90E0E1E1F0E0EC0FFD1FE80FF91F69
S1130BB02D8920836DE070E06C0F7D1F680F791F15
S1130BC086519C4F0E94A4021F5F143010F344E02E
S1130BD0BE01635F7F4FCE0141960E94AF02813018
S1130BE0A1F48AE0E8E8F0E0DE01119601900D92AC
S1130BF08A95E1F789E991E00E94DA088CEA91E0AC
S1130C000E94DA08F12C81E01BC0F39484EC91E09B
S1130C100E94DA0883ED91E00E94DA0883E38F19D9
S1130C200E94D60882E08F1540F461E082EF93E0E1
S1130C300E949802CC24C394ABC08E2D01C08E2D8B
S1130C40813009F09CCFE82EA3C08FEF8D8B60E03C
S1130C5080E00E944D048FED91E00E943A0460E030
S1130C6081E00E944D0489EE91E00E943A04B12C87
S1130C7038C0CE0145960E94C5020B2D10E06DE0F0
S1130C8070E06C0F7D1F600F711FC80182519C4F73
S1130C900E94A4028D898F3F21F16B2D80E00E9478
S1130CA04D04B11002C00E945B048D890E940404AB
S1130CB09FEF25EA8EE0915020408040E1F700C08C
S1130CC00000E1E1F0E0EC0FFD1FE00FF11F8D8962
S1130CD080836B2D80E00E944D048AE20E9404040C
S1130CE0B39493E09B1528F644E0BE01635F7F4F05
S1130CF0CE0141960E94AF02813069F40E945B04E8
S1130D0060E080E00E944D0489EF91E00E943A0483
S1130D10F12C82E039C0F3940E945B0460E080E02F
S1130D200E944D0488E092E00E943A042FEF87EA83
S1130D3091E6215080409040E1F700C000000E94FD
S1130D405B0483ED91E00E943A0460E081E00E943C
S1130D504D0483E38F190E9404042FEF87EA91E680
S1130D60215080409040E1F700C0000022E02F15A0
S1130D7040F461E082EF93E00E949802CC24C39493
S1130D8007C08E2D01C08E2D823009F05ECFE82E73
S1130D90EE2009F4B8CE8D2D90E08533910508F04E
S1130DA0B0CEFC01E65DFF4F0C945409E985FA8549
S1130DB00995E981FA8187E192E00995EF81F88547
S1130DC00995E981FA8186E292E00995EB81FC813B
S1130DD0CE010D9609958D859FEC980F943008F4FB
S1130DE07CC08FCEE985FA850995E981FA8185E38E
S1130DF092E00995EF81F8850995E981FA8185E406
S1130E0092E00995EB81FC81CE010D9609958D85C3
S1130E1092E0980F9D878153843008F060C00F2EB4
S1130E20F0EDDF2EF02DD90E6CCEBE016F5F7F4F3B
S1130E3089E790E00E94E207D12C63CEBE016F5F88
S1130E407F4F84E790E00E94E207D12C5ACEBE0186
S1130E506F5F7F4F8FE690E00E94E207D12C51CE66
S1130E60BE016F5F7F4F8AE690E00E94E207D12CBB
S1130E7048CEBE016F5F7F4F85E690E00E94E20797
S1130E80D12C3FCEBE016F5F7F4F80E690E00E9481
S1130E90E207D12C36CE81E0E81223C085E592E04A
S1130EA00E94DA08CE010D960E94E9088D858133EF
S1130EB049F442E362E370E080E090E00E947E083F
S1130EC0D12C1FCE823371F740E062E370E080E002
S1130ED090E00E947E08D12C14CED82E12CED12CB4
S1130EE010CED12C0ECECF93DF93EC019A8181E00A
S1130EF0911180E08A8341E06C818B810E94EA0039
S1130F008981882361F08A8144E6849F402D1124DD
S1130F1062E370E080E090E00E947E0804C06C818F
S1130F208B810E946504DF91CF9108950F931F93E5
S1130F30CF93DF931F92CDB7DEB7DC0111962C91CE
S1130F4011972223C9F112968C918823A9F18B0160
S1130F50DB011896ED91FC9119970995D801ED9153
S1130F60FC9187E792E00995D8011696ED91FC91E2
S1130F7017970995D801ED91FC9181E892E00995C4
S1130F80D8011296ED91FC911397CE010196099523
S1130F9089819FEC980F933010F4805301C080E056
S1130FA0898347EE849F402D11244C5962E370E0FD
S1130FB080E090E00E947E080F90DF91CF911F9116
S1130FC00F910895EF92FF920F931F93CF93DF93A6
S1130FD0CDB7DEB761970FB6F894DEBF0FBECDBFB5
S1130FE07C018B0180E1E2EAF0E0DE0111960190E0
S1130FF00D928A95E1F7D7018C91805D8D83D8019C
S11310001896ED91FC9119970995F701828188232F
S113101039F08FE48E878EE48F8780E2888B05C059
S11310208FE48E8786E48F87888BD801ED91FC91BD
S1131030CE0101960995D8011696ED91FC9117976A
S11310400995F7018181882351F08281882339F041
S1131050D801ED91FC9180E992E0099506C0D80190
S1131060ED91FC9181EA92E00995D8011296ED91F7
S1131070FC911397CE01419609958989813321F416
S1131080C7010E947307BBCF803371F0823329F408
S1131090B801C7010E949607B2CFD8011496ED910A
S11310A0FC9115970995ABCF61960FB6F894DEBF06
S11310B00FBECDBFDF91CF911F910F91FF90EF90A5
S11310C008958EB580618EBD8EB588608EBD8FB556
S11310D082608FBD8FB58E7F8FBD8FB580688FBDC9
S11310E08FB58F7B8FBD08958EB58B7F8EBD8EB5EA
S11310F082608EBD8EB58E7F8EBD08950F931F9333
S1131100CF938B019C010E5111092109310903363A
S113111014482E413105C0F521B3206221BBC42FF0
S1131120453608F0C4E6DC01CB01880F991FAA1FDD
S1131130BB1F880F991FAA1FBB1F9C01AD01220F63
S1131140331F441F551F60E074E284EF90E00E9457
S113115032092150310937BD26BD26B537B52F5F79
S11311603F4FAC2FB0E00E945A0924E630E040E043
S113117050E00E9432093BBD2ABD8EB5877021F430
S11311800E9461080E947408CF911F910F910895E5
S113119086E880BD8AB18B7F8AB987E689B98AB12E
S11311A080618AB98AB188608AB908958CB95D9BD7
S11311B0FECF0895CF93DF93EC01892B21F406C071
S11311C00E94D608219688818111FACFDF91CF91B0
S11311D00895009729F05F9BFECF2CB1FC0120837A
S11311E008950E94DA0886E591E00E94DA080895DD
S11311F008950E94E9080895089508950E943A0404
S1131200089560E081E00E944D040895CF93DF9338
S1131210EC018FEF8883CE010E94C50288818F3F45
S1131220D1F3DF91CF9108950E945B0480EB92E0AB
S11312300E943A042FEF89E698E1215080409040C3
S1131240E1F700C000000E945B042FEF81EE94E000
S1131250215080409040E1F700C0000008950E94B2
S11312605B040895A1E21A2EAA1BBB1BFD010DC04D
S1131270AA1FBB1FEE1FFF1FA217B307E407F50742
S113128020F0A21BB30BE40BF50B661F771F881F1E
S1131290991F1A9469F760957095809590959B01B4
S11312A0AC01BD01CF010895EE0FFF1F0590F4912D
S11312B0E02D0994A29FB001B39FC001A39F700DBC
S11312C0811D1124911DB29F700D811D1124911D4A
S10912D00895F894FFCF1D
S11312D606010003050500000306040000010003DF
S11312E60000030302000002070100000202FE08D8
S11312F60609140901092F09F108F908FC08F80878
S1131306FD083132334134353642373839432A30D1
S11313162344524F4F4D20205354415455533A20A1
S113132620200057656C636F6D6520746F20736DA4
S113133661727420686F6D652073797374656D0DC1
S11313460A004C6F67696E20666F72206669727355
S1131356742074696D650D0A005365742061646DAB
S1131366696E2070617373776F72640D0A0041644D
S11313766D696E20706173733A000D0A53657420AB
S1131386677565737420706173730D0A004775651C
S1131396737420706173733A000D0A50617373207D
S11313A67361766564000D0A4C6F67696E20426C42
S11313B66F636B65640D0A000D0A53656C6563748F
S11313C6204D6F64653A0D0A00303A41646D696ECA
S11313D60D0A313A4775657374000D0A57726F6EBC
S11313E66720696E7075740D0A000D0A41646D6993
S11313F66E204D6F64650D0A00456E74657220702B
S1131406617373776F72643A000D0A526967687480
S11314162050617373776F72640D0A00796F7520BB
S1131426617265206F6E2041646D696E204D6F6434
S1131436650D0A000D0A57726F6E6720706173732B
S11314460D0A005472696573206C6566743A00452A
S11314566E7465722074686500666F7572206368C1
S1131466617261637465727300524947485420502F
S1131476415353574F52440057524F4E4720504101
S11314865353574F524400313A446F6F7220323AE5
S1131496526F6F6D3100333A526F6F6D3220343AAA
S11314A64D6F726500313A526F6F6D3320323A5286
S11314B66F6F6D3400333A526F6F6D3520343A5284
S11314C66F6F6D3600313A6F70656E20646F6F72A0
S11314D62020323A20636C6F736520646F6F72202C
S11314E620333A5245540044696D2056616C756543
S11314F600313A373520323A353020333A32350026
S1131506313A544720323A44696D20303A524554B0
S113151600313A546F67676C6520303A524554007F
S10F152657726F6E6720696E7075740058
S9030000FC
